:030000000208CF24
:0C08CF00787FE4F6D8FD7581240209163C
:0B0A8800061900050905030201180013
:0E0B0700120AF27B007A007919120A2780F593
:03002B0002095B6C
:10095B00C0E0C0F0C083C082C0D075D000C000C062
:10096B0001C002C003C004C005C006C007C2CF054A
:10097B0018E518B4140C7518007B007A007919125D
:10098B000A5AD007D006D005D004D003D002D0012C
:0D099B00D000D0D0D082D083D0F0D0E03298
:100AC2005389F0438901C2A9758CD8758AF0C28D09
:080AD200D28C308DFDC28C2294
:100A93000A0EC0F9A4B0999282F88090060820103B
:040AA3000804020140
:060A27008B218A228923C5
:100A2D00E4F52474082524F8E6F5B0AB21AA22A933
:100A3D0023852482758300120819240EF8E6F5A08B
:0C0A4D00120AC20524E524C3940640D719
:010A5900227A
:100AF20075CB3C75CD3C75CAB075CCB0C2CFD2AD0A
:050B0200D2AFD2CA22AF
:100A5A007401120846120800C3940A4020E41208DE
:100A6A009B90000104120868900001120819C394AF
:0E0A7A0006400A900001E41208AD1209EF22B6
:1009EF009000027401120868900002120819C39453
:1009FF000A4024900002E41208AD90000374011223
:100A0F000868900003120819C39406400A90000367
:080A1F00E41208AD1209A8223F
:1009A8009000047401120868900005120819C39495
:1009B800024019900004120819C39404400E9000D4
:1009C80004E41208AD900005E40208AD900004129A
:1009D8000819C3940A400F900004E41208AD90006F
:0709E80005740112086822EA
:100AA8007E01A807EE088002C333D8FCFE3000039D
:090AB8004290226306FFEE529009
:010AC1002212
:100ADA007D01A807ED088002C333D8FCFDD20012BD
:070AEA000AA8E5905D24FF5E
:010AF10022E2
:1008DB00020B07E493A3F8E493A34003F68001F221
:1008EB0008DFF48029E493A3F85407240CC8C3331E
:1008FB00C4540F4420C8834004F456800146F6DFED
:10090B00E4800B0102040810204080900A88E47EEA
:10091B00019360BCA3FF543F30E509541FFEE493E1
:10092B00A360010ECF54C025E060A840B8E493A3A8
:10093B00FAE493A3F8E493A3C8C582C8CAC583CAD3
:10094B00F0A3C8C582C8CAC583CADFE9DEE780BE8B
:010AA700004E
:10080000BB010689828A83E0225002E722BBFE02F6
:09081000E32289828A83E4932229
:10081900BB010CE58229F582E5833AF583E0225094
:1008290006E92582F8E622BBFE06E92582F8E222DE
:0D083900E58229F582E5833AF583E49322F8
:10084600BB010989828A83F8E028F022500327F742
:1008560022BBFE05F8E328F3228A838982F8E49313
:02086600282246
:10086800BB010FF8E58229F582E5833AF583E02894
:10087800F0225009C58229F8E58226F622BBFE0936
:10088800C58229F8E22582F222F8EA2583F583E970
:0308980093282280
:10089B00BB010689828A83F0225002F722BBFE013C
:0208AB00F32236
:1008AD00F8BB010DE58229F582E5833AF583E8F081
:1008BD00225006E92582C8F622BBFE05E92582C82D
:0208CD00F22215
:00000001FF
